{
  "contractName": "Registration",
  "abi": [
    {
      "constant": true,
      "inputs": [],
      "name": "name",
      "outputs": [
        {
          "name": "",
          "type": "string"
        }
      ],
      "payable": false,
      "stateMutability": "view",
      "type": "function",
      "signature": "0x06fdde03"
    },
    {
      "constant": true,
      "inputs": [
        {
          "name": "",
          "type": "uint256"
        }
      ],
      "name": "courses",
      "outputs": [
        {
          "name": "name",
          "type": "string"
        },
        {
          "name": "teacher",
          "type": "string"
        },
        {
          "name": "numOfStudents",
          "type": "uint256"
        }
      ],
      "payable": false,
      "stateMutability": "view",
      "type": "function",
      "signature": "0x96f979d2"
    },
    {
      "constant": true,
      "inputs": [],
      "name": "numOfCourses",
      "outputs": [
        {
          "name": "",
          "type": "uint256"
        }
      ],
      "payable": false,
      "stateMutability": "view",
      "type": "function",
      "signature": "0xc5b2a30a"
    },
    {
      "inputs": [],
      "payable": false,
      "stateMutability": "nonpayable",
      "type": "constructor",
      "signature": "constructor"
    },
    {
      "anonymous": false,
      "inputs": [
        {
          "indexed": false,
          "name": "courseId",
          "type": "uint256"
        },
        {
          "indexed": false,
          "name": "courseName",
          "type": "string"
        },
        {
          "indexed": false,
          "name": "teacher",
          "type": "string"
        },
        {
          "indexed": false,
          "name": "numOfStudents",
          "type": "uint256"
        }
      ],
      "name": "CourseRegistered",
      "type": "event",
      "signature": "0x43970476b7019f358bc64ea26b87b5c0126783db512d13432cdf01af2dcd85f1"
    },
    {
      "anonymous": false,
      "inputs": [
        {
          "indexed": false,
          "name": "courseId",
          "type": "uint256"
        },
        {
          "indexed": false,
          "name": "courseName",
          "type": "string"
        },
        {
          "indexed": false,
          "name": "id",
          "type": "uint256"
        },
        {
          "indexed": false,
          "name": "studentName",
          "type": "string"
        }
      ],
      "name": "StudentRegistered",
      "type": "event",
      "signature": "0xafafdb0fbbf5730229beec0f8c771aab149b41818b4604f961d17c69eb9bc383"
    },
    {
      "anonymous": false,
      "inputs": [
        {
          "indexed": false,
          "name": "courseId",
          "type": "uint256"
        },
        {
          "indexed": false,
          "name": "name",
          "type": "string"
        }
      ],
      "name": "CourseName",
      "type": "event",
      "signature": "0x9c176f4667f98329c22e43f57de1ca9d440e7ff5276eb2c76368a832874f5551"
    },
    {
      "anonymous": false,
      "inputs": [
        {
          "indexed": false,
          "name": "id",
          "type": "uint256"
        },
        {
          "indexed": false,
          "name": "student",
          "type": "string"
        }
      ],
      "name": "StudentNameAndId",
      "type": "event",
      "signature": "0x21f192dea4bdef5bd88347308740d95949dbe6636f69d0876dad9584681bf952"
    },
    {
      "anonymous": false,
      "inputs": [
        {
          "indexed": false,
          "name": "message",
          "type": "string"
        },
        {
          "indexed": false,
          "name": "number",
          "type": "uint256"
        }
      ],
      "name": "NumberOfStudents",
      "type": "event",
      "signature": "0x4794f8c4b7e0a0b5875c17b3d984592566a5d38a27c0eca61a7b05901fa175ee"
    },
    {
      "anonymous": false,
      "inputs": [
        {
          "indexed": false,
          "name": "test",
          "type": "string"
        }
      ],
      "name": "Test",
      "type": "event",
      "signature": "0x00cb39d6c2c520f0597db0021367767c48fef2964cf402d3c9e9d4df12e43964"
    },
    {
      "constant": false,
      "inputs": [
        {
          "name": "courseId",
          "type": "uint256"
        },
        {
          "name": "id",
          "type": "uint256"
        },
        {
          "name": "studentName",
          "type": "string"
        }
      ],
      "name": "register",
      "outputs": [],
      "payable": false,
      "stateMutability": "nonpayable",
      "type": "function",
      "signature": "0x61420e8c"
    },
    {
      "constant": false,
      "inputs": [
        {
          "name": "courseId",
          "type": "uint256"
        }
      ],
      "name": "deleteStudentFromCourse",
      "outputs": [],
      "payable": false,
      "stateMutability": "nonpayable",
      "type": "function",
      "signature": "0x050763ff"
    },
    {
      "constant": true,
      "inputs": [
        {
          "name": "courseId",
          "type": "uint256"
        },
        {
          "name": "studentId",
          "type": "uint256"
        }
      ],
      "name": "accessStudentInCourse",
      "outputs": [
        {
          "name": "",
          "type": "string"
        },
        {
          "name": "",
          "type": "address"
        }
      ],
      "payable": false,
      "stateMutability": "view",
      "type": "function",
      "signature": "0xc7c0b998"
    },
    {
      "constant": false,
      "inputs": [
        {
          "name": "courseId",
          "type": "uint256"
        }
      ],
      "name": "printStudentsInCourse",
      "outputs": [],
      "payable": false,
      "stateMutability": "nonpayable",
      "type": "function",
      "signature": "0xd4036ab9"
    },
    {
      "constant": false,
      "inputs": [],
      "name": "printCourses",
      "outputs": [],
      "payable": false,
      "stateMutability": "nonpayable",
      "type": "function",
      "signature": "0x7748ff68"
    },
    {
      "constant": false,
      "inputs": [],
      "name": "test",
      "outputs": [],
      "payable": false,
      "stateMutability": "nonpayable",
      "type": "function",
      "signature": "0xf8a8fd6d"
    }
  ],
  "bytecode": "0x608060405260036001553480156200001657600080fd5b506040805190810160405280601b81526020017f53747564656e7420436f7572736520526567697374726174696f6e0000000000815250600090805190602001906200006492919062000444565b506060604051908101604052806040805190810160405280600881526020017f436f75727365203100000000000000000000000000000000000000000000000081525081526020016040805190810160405280600981526020017f5465616368657220310000000000000000000000000000000000000000000000815250815260200160008152506002600080815260200190815260200160002060008201518160000190805190602001906200011d929190620004cb565b5060208201518160010190805190602001906200013c929190620004cb565b5060408201518160020155905050606060405190810160405280600181526020016040805190810160405280600981526020017f53747564656e742031000000000000000000000000000000000000000000000081525081526020013373ffffffffffffffffffffffffffffffffffffffff1681525060026000808152602001908152602001600020600301600080815260200190815260200160002060008201518160000155602082015181600101908051906020019062000201929190620004cb565b5060408201518160020160006101000a81548173ffffffffffffffffffffffffffffffffffffffff021916908373ffffffffffffffffffffffffffffffffffffffff16021790555090505060026000808152602001908152602001600020600201600081548092919060010191905055506060604051908101604052806040805190810160405280600881526020017f436f75727365203200000000000000000000000000000000000000000000000081525081526020016040805190810160405280600981526020017f546561636865722032000000000000000000000000000000000000000000000081525081526020016000815250600260006001815260200190815260200160002060008201518160000190805190602001906200032b929190620004cb565b5060208201518160010190805190602001906200034a929190620004cb565b50604082015181600201559050506060604051908101604052806040805190810160405280600881526020017f436f75727365203300000000000000000000000000000000000000000000000081525081526020016040805190810160405280600981526020017f5465616368657220330000000000000000000000000000000000000000000000815250815260200160008152506002600060028152602001908152602001600020600082015181600001908051906020019062000411929190620004cb565b50602082015181600101908051906020019062000430929190620004cb565b50604082015181600201559050506200057a565b828054600181600116156101000203166002900490600052602060002090601f016020900481019282601f106200048757805160ff1916838001178555620004b8565b82800160010185558215620004b8579182015b82811115620004b75782518255916020019190600101906200049a565b5b509050620004c7919062000552565b5090565b828054600181600116156101000203166002900490600052602060002090601f016020900481019282601f106200050e57805160ff19168380011785556200053f565b828001600101855582156200053f579182015b828111156200053e57825182559160200191906001019062000521565b5b5090506200054e919062000552565b5090565b6200057791905b808211156200057357600081600090555060010162000559565b5090565b90565b6117f4806200058a6000396000f3fe608060405260043610610099576000357c0100000000000000000000000000000000000000000000000000000000900463ffffffff168063050763ff1461009e57806306fdde03146100d957806361420e8c146101695780637748ff681461024557806396f979d21461025c578063c5b2a30a14610383578063c7c0b998146103ae578063d4036ab91461049f578063f8a8fd6d146104da575b600080fd5b3480156100aa57600080fd5b506100d7600480360360208110156100c157600080fd5b81019080803590602001909291905050506104f1565b005b3480156100e557600080fd5b506100ee610977565b6040518080602001828103825283818151815260200191508051906020019080838360005b8381101561012e578082015181840152602081019050610113565b50505050905090810190601f16801561015b5780820380516001836020036101000a031916815260200191505b509250505060405180910390f35b34801561017557600080fd5b506102436004803603606081101561018c57600080fd5b810190808035906020019092919080359060200190929190803590602001906401000000008111156101bd57600080fd5b8201836020820111156101cf57600080fd5b803590602001918460018302840111640100000000831117156101f157600080fd5b91908080601f016020809104026020016040519081016040528093929190818152602001838380828437600081840152601f19601f820116905080830192505050505050509192919290505050610a15565b005b34801561025157600080fd5b5061025a611007565b005b34801561026857600080fd5b506102956004803603602081101561027f57600080fd5b81019080803590602001909291905050506110f8565b604051808060200180602001848152602001838103835286818151815260200191508051906020019080838360005b838110156102df5780820151818401526020810190506102c4565b50505050905090810190601f16801561030c5780820380516001836020036101000a031916815260200191505b50838103825285818151815260200191508051906020019080838360005b8381101561034557808201518184015260208101905061032a565b50505050905090810190601f1680156103725780820380516001836020036101000a031916815260200191505b509550505050505060405180910390f35b34801561038f57600080fd5b50610398611252565b6040518082815260200191505060405180910390f35b3480156103ba57600080fd5b506103f1600480360360408110156103d157600080fd5b810190808035906020019092919080359060200190929190505050611258565b60405180806020018373ffffffffffffffffffffffffffffffffffffffff1673ffffffffffffffffffffffffffffffffffffffff168152602001828103825284818151815260200191508051906020019080838360005b83811015610463578082015181840152602081019050610448565b50505050905090810190601f1680156104905780820380516001836020036101000a031916815260200191505b50935050505060405180910390f35b3480156104ab57600080fd5b506104d8600480360360208110156104c257600080fd5b8101908080359060200190929190505050611378565b005b3480156104e657600080fd5b506104ef6115b3565b005b600060026000838152602001908152602001600020905060008090505b816002015481111515610972573373ffffffffffffffffffffffffffffffffffffffff1682600301600083815260200190815260200160002060020160009054906101000a900473ffffffffffffffffffffffffffffffffffffffff1673ffffffffffffffffffffffffffffffffffffffff161415610967577fafafdb0fbbf5730229beec0f8c771aab149b41818b4604f961d17c69eb9bc3838360026000868152602001908152602001600020600001600260008781526020019081526020016000206003016000858152602001908152602001600020600001546002600088815260200190815260200160002060030160008681526020019081526020016000206001016040518085815260200180602001848152602001806020018381038352868181546001816001161561010002031660029004815260200191508054600181600116156101000203166002900480156106ad5780601f10610682576101008083540402835291602001916106ad565b820191906000526020600020905b81548152906001019060200180831161069057829003601f168201915b50508381038252848181546001816001161561010002031660029004815260200191508054600181600116156101000203166002900480156107305780601f1061070557610100808354040283529160200191610730565b820191906000526020600020905b81548152906001019060200180831161071357829003601f168201915b5050965050505050505060405180910390a1600260008481526020019081526020016000206003016000828152602001908152602001600020600080820160009055600182016000610782919061161c565b6002820160006101000a81549073ffffffffffffffffffffffffffffffffffffffff021916905550507fafafdb0fbbf5730229beec0f8c771aab149b41818b4604f961d17c69eb9bc3838360026000868152602001908152602001600020600001600260008781526020019081526020016000206003016000858152602001908152602001600020600001546002600088815260200190815260200160002060030160008681526020019081526020016000206001016040518085815260200180602001848152602001806020018381038352868181546001816001161561010002031660029004815260200191508054600181600116156101000203166002900480156108d15780601f106108a6576101008083540402835291602001916108d1565b820191906000526020600020905b8154815290600101906020018083116108b457829003601f168201915b50508381038252848181546001816001161561010002031660029004815260200191508054600181600116156101000203166002900480156109545780601f1061092957610100808354040283529160200191610954565b820191906000526020600020905b81548152906001019060200180831161093757829003601f168201915b5050965050505050505060405180910390a15b80600101905061050e565b505050565b60008054600181600116156101000203166002900480601f016020809104026020016040519081016040528092919081815260200182805460018160011615610100020316600290048015610a0d5780601f106109e257610100808354040283529160200191610a0d565b820191906000526020600020905b8154815290600101906020018083116109f057829003601f168201915b505050505081565b6000600260008581526020019081526020016000209050610a34611664565b6060604051908101604052808581526020018481526020013373ffffffffffffffffffffffffffffffffffffffff1681525090506000826002015490506000811415610b065781836003016000808152602001908152602001600020600082015181600001556020820151816001019080519060200190610ab692919061169c565b5060408201518160020160006101000a81548173ffffffffffffffffffffffffffffffffffffffff021916908373ffffffffffffffffffffffffffffffffffffffff160217905550905050610b8e565b81836003016000838152602001908152602001600020600082015181600001556020820151816001019080519060200190610b4292919061169c565b5060408201518160020160006101000a81548173ffffffffffffffffffffffffffffffffffffffff021916908373ffffffffffffffffffffffffffffffffffffffff1602179055509050505b826002600088815260200190815260200160002060008201816000019080546001816001161561010002031660029004610bc992919061171c565b5060018201816001019080546001816001161561010002031660029004610bf192919061171c565b506002820154816002015590505060026000878152602001908152602001600020600201600081548092919060010191905055507f4794f8c4b7e0a0b5875c17b3d984592566a5d38a27c0eca61a7b05901fa175ee60026000888152602001908152602001600020600201546040518080602001838152602001828103825260118152602001807f4e756d626572206f6620436f75727365730000000000000000000000000000008152506020019250505060405180910390a17f43970476b7019f358bc64ea26b87b5c0126783db512d13432cdf01af2dcd85f18660026000898152602001908152602001600020600001600260008a8152602001908152602001600020600101600260008b815260200190815260200160002060020154604051808581526020018060200180602001848152602001838103835286818154600181600116156101000203166002900481526020019150805460018160011615610100020316600290048015610da95780601f10610d7e57610100808354040283529160200191610da9565b820191906000526020600020905b815481529060010190602001808311610d8c57829003601f168201915b5050838103825285818154600181600116156101000203166002900481526020019150805460018160011615610100020316600290048015610e2c5780601f10610e0157610100808354040283529160200191610e2c565b820191906000526020600020905b815481529060010190602001808311610e0f57829003601f168201915b5050965050505050505060405180910390a17fafafdb0fbbf5730229beec0f8c771aab149b41818b4604f961d17c69eb9bc3838660026000898152602001908152602001600020600001600260008a8152602001908152602001600020600301600060018601815260200190815260200160002060000154600260008b81526020019081526020016000206003016000600187018152602001908152602001600020600101604051808581526020018060200184815260200180602001838103835286818154600181600116156101000203166002900481526020019150805460018160011615610100020316600290048015610f6a5780601f10610f3f57610100808354040283529160200191610f6a565b820191906000526020600020905b815481529060010190602001808311610f4d57829003601f168201915b5050838103825284818154600181600116156101000203166002900481526020019150805460018160011615610100020316600290048015610fed5780601f10610fc257610100808354040283529160200191610fed565b820191906000526020600020905b815481529060010190602001808311610fd057829003601f168201915b5050965050505050505060405180910390a1505050505050565b60005b6001548110156110f5577f9c176f4667f98329c22e43f57de1ca9d440e7ff5276eb2c76368a832874f5551816002600084815260200190815260200160002060000160405180838152602001806020018281038252838181546001816001161561010002031660029004815260200191508054600181600116156101000203166002900480156110db5780601f106110b0576101008083540402835291602001916110db565b820191906000526020600020905b8154815290600101906020018083116110be57829003601f168201915b5050935050505060405180910390a180600101905061100a565b50565b6002602052806000526040600020600091509050806000018054600181600116156101000203166002900480601f0160208091040260200160405190810160405280929190818152602001828054600181600116156101000203166002900480156111a45780601f10611179576101008083540402835291602001916111a4565b820191906000526020600020905b81548152906001019060200180831161118757829003601f168201915b505050505090806001018054600181600116156101000203166002900480601f0160208091040260200160405190810160405280929190818152602001828054600181600116156101000203166002900480156112425780601f1061121757610100808354040283529160200191611242565b820191906000526020600020905b81548152906001019060200180831161122557829003601f168201915b5050505050908060020154905083565b60015481565b6060600060026000858152602001908152602001600020600301600084815260200190815260200160002060010160026000868152602001908152602001600020600301600085815260200190815260200160002060020160009054906101000a900473ffffffffffffffffffffffffffffffffffffffff16818054600181600116156101000203166002900480601f0160208091040260200160405190810160405280929190818152602001828054600181600116156101000203166002900480156113665780601f1061133b57610100808354040283529160200191611366565b820191906000526020600020905b81548152906001019060200180831161134957829003601f168201915b50505050509150915091509250929050565b7f9c176f4667f98329c22e43f57de1ca9d440e7ff5276eb2c76368a832874f55518160026000848152602001908152602001600020600001604051808381526020018060200182810382528381815460018160011615610100020316600290048152602001915080546001816001161561010002031660029004801561143f5780601f106114145761010080835404028352916020019161143f565b820191906000526020600020905b81548152906001019060200180831161142257829003601f168201915b5050935050505060405180910390a1600060026000838152602001908152602001600020600201541415156115b05760005b60026000838152602001908152602001600020600201548110156115ae577f21f192dea4bdef5bd88347308740d95949dbe6636f69d0876dad9584681bf9526002600084815260200190815260200160002060030160008381526020019081526020016000206000015460026000858152602001908152602001600020600301600084815260200190815260200160002060010160405180838152602001806020018281038252838181546001816001161561010002031660029004815260200191508054600181600116156101000203166002900480156115945780601f1061156957610100808354040283529160200191611594565b820191906000526020600020905b81548152906001019060200180831161157757829003601f168201915b5050935050505060405180910390a1806001019050611471565b505b50565b7ecb39d6c2c520f0597db0021367767c48fef2964cf402d3c9e9d4df12e4396460405180806020018281038252600c8152602001807f6d6573736167652074657374000000000000000000000000000000000000000081525060200191505060405180910390a1565b50805460018160011615610100020316600290046000825580601f106116425750611661565b601f01602090049060005260206000209081019061166091906117a3565b5b50565b6060604051908101604052806000815260200160608152602001600073ffffffffffffffffffffffffffffffffffffffff1681525090565b828054600181600116156101000203166002900490600052602060002090601f016020900481019282601f106116dd57805160ff191683800117855561170b565b8280016001018555821561170b579182015b8281111561170a5782518255916020019190600101906116ef565b5b50905061171891906117a3565b5090565b828054600181600116156101000203166002900490600052602060002090601f016020900481019282601f106117555780548555611792565b8280016001018555821561179257600052602060002091601f016020900482015b82811115611791578254825591600101919060010190611776565b5b50905061179f91906117a3565b5090565b6117c591905b808211156117c15760008160009055506001016117a9565b5090565b9056fea165627a7a72305820af73f8829a0dbb2aa99d95ffade831e98fa84aefca14c1a4fec86d851d8c6e180029",
  "source": "pragma solidity ^0.5.0;\r\n\r\ncontract Registration {\r\n    string public name;\r\n    uint256 public numOfCourses = 3;\r\n\r\n    mapping(uint256 => Course) public courses;\r\n\r\n    struct Course {\r\n        string name;\r\n        string teacher;\r\n        uint256 numOfStudents;\r\n        mapping(uint256 => Student) students;\r\n    }\r\n\r\n    struct Student {\r\n        uint256 id;\r\n        string name;\r\n        address stdAddress;\r\n    }\r\n\r\n    constructor() public {\r\n        name = \"Student Course Registration\";\r\n        courses[0] = Course(\"Course 1\", \"Teacher 1\", 0);\r\n        courses[0].students[0] = Student(1, \"Student 1\", msg.sender);\r\n        courses[0].numOfStudents++;\r\n        courses[1] = Course(\"Course 2\", \"Teacher 2\", 0);\r\n        courses[2] = Course(\"Course 3\", \"Teacher 3\", 0);\r\n    }\r\n\r\n    event CourseRegistered(\r\n        uint256 courseId,\r\n        string courseName,\r\n        string teacher,\r\n        uint256 numOfStudents\r\n    );\r\n    event StudentRegistered(\r\n        uint256 courseId,\r\n        string courseName,\r\n        uint256 id,\r\n        string studentName\r\n    );\r\n    event CourseName(uint256 courseId, string name);\r\n    event StudentNameAndId(uint256 id, string student);\r\n    event NumberOfStudents(string message, uint256 number);\r\n\r\n    event Test(string test);\r\n\r\n    // Register a student to a course\r\n    function register(\r\n        uint256 courseId,\r\n        uint256 id,\r\n        string memory studentName\r\n    ) public {\r\n        Course storage selectedCourse = courses[courseId];\r\n        Student memory newStudent = Student(id, studentName, msg.sender);\r\n        uint256 numOfStudents = selectedCourse.numOfStudents;\r\n        if (numOfStudents == 0) {\r\n            selectedCourse.students[0] = newStudent;\r\n        } else {\r\n            selectedCourse.students[numOfStudents] = newStudent;\r\n        }\r\n        courses[courseId] = selectedCourse;\r\n        courses[courseId].numOfStudents++;\r\n        emit NumberOfStudents(\r\n            \"Number of Courses\",\r\n            courses[courseId].numOfStudents\r\n        );\r\n        emit CourseRegistered(\r\n            courseId,\r\n            courses[courseId].name,\r\n            courses[courseId].teacher,\r\n            courses[courseId].numOfStudents\r\n        );\r\n        emit StudentRegistered(\r\n            courseId,\r\n            courses[courseId].name,\r\n            courses[courseId].students[numOfStudents + 1].id,\r\n            courses[courseId].students[numOfStudents + 1].name\r\n        );\r\n    }\r\n\r\n    // Delete student from course\r\n    function deleteStudentFromCourse(uint256 courseId) public {\r\n        Course storage selectedCourse = courses[courseId];\r\n\r\n        for (uint256 i = 0; i <= selectedCourse.numOfStudents; ++i) {\r\n            if (selectedCourse.students[i].stdAddress == msg.sender) {\r\n                emit StudentRegistered(\r\n                    courseId,\r\n                    courses[courseId].name,\r\n                    courses[courseId].students[i].id,\r\n                    courses[courseId].students[i].name\r\n                );\r\n                delete courses[courseId].students[i];\r\n                emit StudentRegistered(\r\n                    courseId,\r\n                    courses[courseId].name,\r\n                    courses[courseId].students[i].id,\r\n                    courses[courseId].students[i].name\r\n                );\r\n            }\r\n        }\r\n    }\r\n\r\n    function accessStudentInCourse(uint256 courseId, uint256 studentId)\r\n        public\r\n        view\r\n        returns (string memory, address)\r\n    {\r\n        return (\r\n            courses[courseId].students[studentId].name,\r\n            courses[courseId].students[studentId].stdAddress\r\n        );\r\n    }\r\n\r\n    function printStudentsInCourse(uint256 courseId) public {\r\n        emit CourseName(courseId, courses[courseId].name);\r\n        if (courses[courseId].numOfStudents != 0) {\r\n            for (uint256 i; i < courses[courseId].numOfStudents; ++i) {\r\n                emit StudentNameAndId(\r\n                    courses[courseId].students[i].id,\r\n                    courses[courseId].students[i].name\r\n                );\r\n            }\r\n        }\r\n    }\r\n\r\n    function printCourses() public {\r\n        for (uint256 i; i < numOfCourses; ++i) {\r\n            emit CourseName(i, courses[i].name);\r\n        }\r\n    }\r\n\r\n    function test() public {\r\n        emit Test(\"message test\");\r\n    }\r\n}\r\n",
  "sourcePath": "C:/school-projects/CourseRegistration/src/contracts/Registration.sol",
  "compiler": {
    "name": "solc",
    "version": "0.5.0+commit.1d4f565a.Emscripten.clang"
  },
  "schemaVersion": "3.0.2",
  "updatedAt": "2022-01-10T02:57:39.289Z",
  "devdoc": {
    "methods": {}
  },
  "userdoc": {
    "methods": {}
  }
}