{
  "contractName": "Registration",
  "abi": [
    {
      "constant": true,
      "inputs": [],
      "name": "name",
      "outputs": [
        {
          "name": "",
          "type": "string"
        }
      ],
      "payable": false,
      "stateMutability": "view",
      "type": "function",
      "signature": "0x06fdde03"
    },
    {
      "constant": true,
      "inputs": [
        {
          "name": "",
          "type": "uint256"
        }
      ],
      "name": "courses",
      "outputs": [
        {
          "name": "name",
          "type": "string"
        },
        {
          "name": "teacher",
          "type": "string"
        },
        {
          "name": "numOfStudents",
          "type": "uint256"
        }
      ],
      "payable": false,
      "stateMutability": "view",
      "type": "function",
      "signature": "0x96f979d2"
    },
    {
      "constant": true,
      "inputs": [],
      "name": "numOfCourses",
      "outputs": [
        {
          "name": "",
          "type": "uint256"
        }
      ],
      "payable": false,
      "stateMutability": "view",
      "type": "function",
      "signature": "0xc5b2a30a"
    },
    {
      "inputs": [],
      "payable": false,
      "stateMutability": "nonpayable",
      "type": "constructor",
      "signature": "constructor"
    },
    {
      "anonymous": false,
      "inputs": [
        {
          "indexed": false,
          "name": "courseId",
          "type": "uint256"
        },
        {
          "indexed": false,
          "name": "courseName",
          "type": "string"
        },
        {
          "indexed": false,
          "name": "teacher",
          "type": "string"
        },
        {
          "indexed": false,
          "name": "numOfStudents",
          "type": "uint256"
        }
      ],
      "name": "CourseRegistered",
      "type": "event",
      "signature": "0x43970476b7019f358bc64ea26b87b5c0126783db512d13432cdf01af2dcd85f1"
    },
    {
      "anonymous": false,
      "inputs": [
        {
          "indexed": false,
          "name": "courseId",
          "type": "uint256"
        },
        {
          "indexed": false,
          "name": "courseName",
          "type": "string"
        },
        {
          "indexed": false,
          "name": "id",
          "type": "uint256"
        },
        {
          "indexed": false,
          "name": "studentName",
          "type": "string"
        }
      ],
      "name": "StudentRegistered",
      "type": "event",
      "signature": "0xafafdb0fbbf5730229beec0f8c771aab149b41818b4604f961d17c69eb9bc383"
    },
    {
      "anonymous": false,
      "inputs": [
        {
          "indexed": false,
          "name": "courseId",
          "type": "uint256"
        },
        {
          "indexed": false,
          "name": "name",
          "type": "string"
        }
      ],
      "name": "CourseName",
      "type": "event",
      "signature": "0x9c176f4667f98329c22e43f57de1ca9d440e7ff5276eb2c76368a832874f5551"
    },
    {
      "anonymous": false,
      "inputs": [
        {
          "indexed": false,
          "name": "id",
          "type": "uint256"
        },
        {
          "indexed": false,
          "name": "student",
          "type": "string"
        }
      ],
      "name": "StudentNameAndId",
      "type": "event",
      "signature": "0x21f192dea4bdef5bd88347308740d95949dbe6636f69d0876dad9584681bf952"
    },
    {
      "anonymous": false,
      "inputs": [
        {
          "indexed": false,
          "name": "test",
          "type": "string"
        }
      ],
      "name": "Test",
      "type": "event",
      "signature": "0x00cb39d6c2c520f0597db0021367767c48fef2964cf402d3c9e9d4df12e43964"
    },
    {
      "constant": false,
      "inputs": [
        {
          "name": "courseId",
          "type": "uint256"
        },
        {
          "name": "id",
          "type": "uint256"
        },
        {
          "name": "studentName",
          "type": "string"
        }
      ],
      "name": "register",
      "outputs": [],
      "payable": false,
      "stateMutability": "nonpayable",
      "type": "function",
      "signature": "0x61420e8c"
    },
    {
      "constant": false,
      "inputs": [
        {
          "name": "courseId",
          "type": "uint256"
        }
      ],
      "name": "deleteStudentFromCourse",
      "outputs": [],
      "payable": false,
      "stateMutability": "nonpayable",
      "type": "function",
      "signature": "0x050763ff"
    },
    {
      "constant": false,
      "inputs": [
        {
          "name": "courseId",
          "type": "uint256"
        }
      ],
      "name": "printStudentsInCourse",
      "outputs": [],
      "payable": false,
      "stateMutability": "nonpayable",
      "type": "function",
      "signature": "0xd4036ab9"
    },
    {
      "constant": false,
      "inputs": [],
      "name": "printCourses",
      "outputs": [],
      "payable": false,
      "stateMutability": "nonpayable",
      "type": "function",
      "signature": "0x7748ff68"
    },
    {
      "constant": false,
      "inputs": [],
      "name": "test",
      "outputs": [],
      "payable": false,
      "stateMutability": "nonpayable",
      "type": "function",
      "signature": "0xf8a8fd6d"
    }
  ],
  "bytecode": "0x608060405260036001553480156200001657600080fd5b506040805190810160405280601b81526020017f53747564656e7420436f7572736520526567697374726174696f6e0000000000815250600090805190602001906200006492919062000444565b506060604051908101604052806040805190810160405280600881526020017f436f75727365203100000000000000000000000000000000000000000000000081525081526020016040805190810160405280600981526020017f5465616368657220310000000000000000000000000000000000000000000000815250815260200160008152506002600080815260200190815260200160002060008201518160000190805190602001906200011d929190620004cb565b5060208201518160010190805190602001906200013c929190620004cb565b5060408201518160020155905050606060405190810160405280600181526020016040805190810160405280600981526020017f53747564656e742031000000000000000000000000000000000000000000000081525081526020013373ffffffffffffffffffffffffffffffffffffffff1681525060026000808152602001908152602001600020600301600080815260200190815260200160002060008201518160000155602082015181600101908051906020019062000201929190620004cb565b5060408201518160020160006101000a81548173ffffffffffffffffffffffffffffffffffffffff021916908373ffffffffffffffffffffffffffffffffffffffff16021790555090505060026000808152602001908152602001600020600201600081548092919060010191905055506060604051908101604052806040805190810160405280600881526020017f436f75727365203200000000000000000000000000000000000000000000000081525081526020016040805190810160405280600981526020017f546561636865722032000000000000000000000000000000000000000000000081525081526020016000815250600260006001815260200190815260200160002060008201518160000190805190602001906200032b929190620004cb565b5060208201518160010190805190602001906200034a929190620004cb565b50604082015181600201559050506060604051908101604052806040805190810160405280600881526020017f436f75727365203300000000000000000000000000000000000000000000000081525081526020016040805190810160405280600981526020017f5465616368657220330000000000000000000000000000000000000000000000815250815260200160008152506002600060028152602001908152602001600020600082015181600001908051906020019062000411929190620004cb565b50602082015181600101908051906020019062000430929190620004cb565b50604082015181600201559050506200057a565b828054600181600116156101000203166002900490600052602060002090601f016020900481019282601f106200048757805160ff1916838001178555620004b8565b82800160010185558215620004b8579182015b82811115620004b75782518255916020019190600101906200049a565b5b509050620004c7919062000552565b5090565b828054600181600116156101000203166002900490600052602060002090601f016020900481019282601f106200050e57805160ff19168380011785556200053f565b828001600101855582156200053f579182015b828111156200053e57825182559160200191906001019062000521565b5b5090506200054e919062000552565b5090565b6200057791905b808211156200057357600081600090555060010162000559565b5090565b90565b611534806200058a6000396000f3fe60806040526004361061008e576000357c0100000000000000000000000000000000000000000000000000000000900463ffffffff168063050763ff1461009357806306fdde03146100ce57806361420e8c1461015e5780637748ff681461023a57806396f979d214610251578063c5b2a30a14610378578063d4036ab9146103a3578063f8a8fd6d146103de575b600080fd5b34801561009f57600080fd5b506100cc600480360360208110156100b657600080fd5b81019080803590602001909291905050506103f5565b005b3480156100da57600080fd5b506100e361087b565b6040518080602001828103825283818151815260200191508051906020019080838360005b83811015610123578082015181840152602081019050610108565b50505050905090810190601f1680156101505780820380516001836020036101000a031916815260200191505b509250505060405180910390f35b34801561016a57600080fd5b506102386004803603606081101561018157600080fd5b810190808035906020019092919080359060200190929190803590602001906401000000008111156101b257600080fd5b8201836020820111156101c457600080fd5b803590602001918460018302840111640100000000831117156101e657600080fd5b91908080601f016020809104026020016040519081016040528093929190818152602001838380828437600081840152601f19601f820116905080830192505050505050509192919290505050610919565b005b34801561024657600080fd5b5061024f610e88565b005b34801561025d57600080fd5b5061028a6004803603602081101561027457600080fd5b8101908080359060200190929190505050610f79565b604051808060200180602001848152602001838103835286818151815260200191508051906020019080838360005b838110156102d45780820151818401526020810190506102b9565b50505050905090810190601f1680156103015780820380516001836020036101000a031916815260200191505b50838103825285818151815260200191508051906020019080838360005b8381101561033a57808201518184015260208101905061031f565b50505050905090810190601f1680156103675780820380516001836020036101000a031916815260200191505b509550505050505060405180910390f35b34801561038457600080fd5b5061038d6110d3565b6040518082815260200191505060405180910390f35b3480156103af57600080fd5b506103dc600480360360208110156103c657600080fd5b81019080803590602001909291905050506110d9565b005b3480156103ea57600080fd5b506103f36112f3565b005b600060026000838152602001908152602001600020905060008090505b816002015481111515610876573373ffffffffffffffffffffffffffffffffffffffff1682600301600083815260200190815260200160002060020160009054906101000a900473ffffffffffffffffffffffffffffffffffffffff1673ffffffffffffffffffffffffffffffffffffffff16141561086b577fafafdb0fbbf5730229beec0f8c771aab149b41818b4604f961d17c69eb9bc3838360026000868152602001908152602001600020600001600260008781526020019081526020016000206003016000858152602001908152602001600020600001546002600088815260200190815260200160002060030160008681526020019081526020016000206001016040518085815260200180602001848152602001806020018381038352868181546001816001161561010002031660029004815260200191508054600181600116156101000203166002900480156105b15780601f10610586576101008083540402835291602001916105b1565b820191906000526020600020905b81548152906001019060200180831161059457829003601f168201915b50508381038252848181546001816001161561010002031660029004815260200191508054600181600116156101000203166002900480156106345780601f1061060957610100808354040283529160200191610634565b820191906000526020600020905b81548152906001019060200180831161061757829003601f168201915b5050965050505050505060405180910390a1600260008481526020019081526020016000206003016000828152602001908152602001600020600080820160009055600182016000610686919061135c565b6002820160006101000a81549073ffffffffffffffffffffffffffffffffffffffff021916905550507fafafdb0fbbf5730229beec0f8c771aab149b41818b4604f961d17c69eb9bc3838360026000868152602001908152602001600020600001600260008781526020019081526020016000206003016000858152602001908152602001600020600001546002600088815260200190815260200160002060030160008681526020019081526020016000206001016040518085815260200180602001848152602001806020018381038352868181546001816001161561010002031660029004815260200191508054600181600116156101000203166002900480156107d55780601f106107aa576101008083540402835291602001916107d5565b820191906000526020600020905b8154815290600101906020018083116107b857829003601f168201915b50508381038252848181546001816001161561010002031660029004815260200191508054600181600116156101000203166002900480156108585780601f1061082d57610100808354040283529160200191610858565b820191906000526020600020905b81548152906001019060200180831161083b57829003601f168201915b5050965050505050505060405180910390a15b806001019050610412565b505050565b60008054600181600116156101000203166002900480601f0160208091040260200160405190810160405280929190818152602001828054600181600116156101000203166002900480156109115780601f106108e657610100808354040283529160200191610911565b820191906000526020600020905b8154815290600101906020018083116108f457829003601f168201915b505050505081565b60006002600085815260200190815260200160002090506109386113a4565b6060604051908101604052808581526020018481526020013373ffffffffffffffffffffffffffffffffffffffff1681525090506000826002015490506000811415610a0a57818360030160008081526020019081526020016000206000820151816000015560208201518160010190805190602001906109ba9291906113dc565b5060408201518160020160006101000a81548173ffffffffffffffffffffffffffffffffffffffff021916908373ffffffffffffffffffffffffffffffffffffffff160217905550905050610a95565b81836003016000600184018152602001908152602001600020600082015181600001556020820151816001019080519060200190610a499291906113dc565b5060408201518160020160006101000a81548173ffffffffffffffffffffffffffffffffffffffff021916908373ffffffffffffffffffffffffffffffffffffffff1602179055509050505b826002600088815260200190815260200160002060008201816000019080546001816001161561010002031660029004610ad092919061145c565b5060018201816001019080546001816001161561010002031660029004610af892919061145c565b506002820154816002015590505060026000878152602001908152602001600020600201600081548092919060010191905055507f43970476b7019f358bc64ea26b87b5c0126783db512d13432cdf01af2dcd85f18660026000898152602001908152602001600020600001600260008a8152602001908152602001600020600101600260008b815260200190815260200160002060020154604051808581526020018060200180602001848152602001838103835286818154600181600116156101000203166002900481526020019150805460018160011615610100020316600290048015610c2a5780601f10610bff57610100808354040283529160200191610c2a565b820191906000526020600020905b815481529060010190602001808311610c0d57829003601f168201915b5050838103825285818154600181600116156101000203166002900481526020019150805460018160011615610100020316600290048015610cad5780601f10610c8257610100808354040283529160200191610cad565b820191906000526020600020905b815481529060010190602001808311610c9057829003601f168201915b5050965050505050505060405180910390a17fafafdb0fbbf5730229beec0f8c771aab149b41818b4604f961d17c69eb9bc3838660026000898152602001908152602001600020600001600260008a8152602001908152602001600020600301600060018601815260200190815260200160002060000154600260008b81526020019081526020016000206003016000600187018152602001908152602001600020600101604051808581526020018060200184815260200180602001838103835286818154600181600116156101000203166002900481526020019150805460018160011615610100020316600290048015610deb5780601f10610dc057610100808354040283529160200191610deb565b820191906000526020600020905b815481529060010190602001808311610dce57829003601f168201915b5050838103825284818154600181600116156101000203166002900481526020019150805460018160011615610100020316600290048015610e6e5780601f10610e4357610100808354040283529160200191610e6e565b820191906000526020600020905b815481529060010190602001808311610e5157829003601f168201915b5050965050505050505060405180910390a1505050505050565b60005b600154811015610f76577f9c176f4667f98329c22e43f57de1ca9d440e7ff5276eb2c76368a832874f555181600260008481526020019081526020016000206000016040518083815260200180602001828103825283818154600181600116156101000203166002900481526020019150805460018160011615610100020316600290048015610f5c5780601f10610f3157610100808354040283529160200191610f5c565b820191906000526020600020905b815481529060010190602001808311610f3f57829003601f168201915b5050935050505060405180910390a1806001019050610e8b565b50565b6002602052806000526040600020600091509050806000018054600181600116156101000203166002900480601f0160208091040260200160405190810160405280929190818152602001828054600181600116156101000203166002900480156110255780601f10610ffa57610100808354040283529160200191611025565b820191906000526020600020905b81548152906001019060200180831161100857829003601f168201915b505050505090806001018054600181600116156101000203166002900480601f0160208091040260200160405190810160405280929190818152602001828054600181600116156101000203166002900480156110c35780601f10611098576101008083540402835291602001916110c3565b820191906000526020600020905b8154815290600101906020018083116110a657829003601f168201915b5050505050908060020154905083565b60015481565b7f9c176f4667f98329c22e43f57de1ca9d440e7ff5276eb2c76368a832874f5551816002600084815260200190815260200160002060000160405180838152602001806020018281038252838181546001816001161561010002031660029004815260200191508054600181600116156101000203166002900480156111a05780601f10611175576101008083540402835291602001916111a0565b820191906000526020600020905b81548152906001019060200180831161118357829003601f168201915b5050935050505060405180910390a160005b60026000838152602001908152602001600020600201548110156112ef577f21f192dea4bdef5bd88347308740d95949dbe6636f69d0876dad9584681bf9526002600084815260200190815260200160002060030160008381526020019081526020016000206000015460026000858152602001908152602001600020600301600084815260200190815260200160002060010160405180838152602001806020018281038252838181546001816001161561010002031660029004815260200191508054600181600116156101000203166002900480156112d55780601f106112aa576101008083540402835291602001916112d5565b820191906000526020600020905b8154815290600101906020018083116112b857829003601f168201915b5050935050505060405180910390a18060010190506111b2565b5050565b7ecb39d6c2c520f0597db0021367767c48fef2964cf402d3c9e9d4df12e4396460405180806020018281038252600c8152602001807f6d6573736167652074657374000000000000000000000000000000000000000081525060200191505060405180910390a1565b50805460018160011615610100020316600290046000825580601f1061138257506113a1565b601f0160209004906000526020600020908101906113a091906114e3565b5b50565b6060604051908101604052806000815260200160608152602001600073ffffffffffffffffffffffffffffffffffffffff1681525090565b828054600181600116156101000203166002900490600052602060002090601f016020900481019282601f1061141d57805160ff191683800117855561144b565b8280016001018555821561144b579182015b8281111561144a57825182559160200191906001019061142f565b5b50905061145891906114e3565b5090565b828054600181600116156101000203166002900490600052602060002090601f016020900481019282601f1061149557805485556114d2565b828001600101855582156114d257600052602060002091601f016020900482015b828111156114d15782548255916001019190600101906114b6565b5b5090506114df91906114e3565b5090565b61150591905b808211156115015760008160009055506001016114e9565b5090565b9056fea165627a7a7230582086e18e7ba33bb44cf8544710787a703a83bbbcc99b1811e4da88f27b522523560029",
  "source": "pragma solidity ^0.5.0;\n\n\ncontract Registration {\n    string public name;\n    uint public numOfCourses = 3;\n    \n    mapping (uint => Course) public courses;\n\n    struct Course {\n        string name;\n        string teacher;\n        uint numOfStudents;\n        mapping(uint => Student) students;\n    }\n\n    struct Student {\n        uint id;\n        string name;\n        address stdAddress;\n    }\n\n    constructor() public {\n        name = \"Student Course Registration\";\n        courses[0] = Course(\"Course 1\", \"Teacher 1\", 0);\n        courses[0].students[0] = Student(1, \"Student 1\", msg.sender);\n        courses[0].numOfStudents++;\n        courses[1] = Course(\"Course 2\", \"Teacher 2\", 0);\n        courses[2] = Course(\"Course 3\", \"Teacher 3\", 0);\n    }\n\n    event CourseRegistered(uint courseId, string courseName, string teacher, uint numOfStudents);\n    event StudentRegistered(uint courseId, string courseName, uint id, string studentName);\n    event CourseName(uint courseId, string name);\n    event StudentNameAndId(uint id, string student);\n    \n\n    event Test(string test);\n\n    // Register a student to a course\n    function register(uint courseId, uint id, string memory studentName) public {\n        Course storage selectedCourse = courses[courseId];\n        Student memory newStudent = Student(id, studentName, msg.sender);\n        uint numOfStudents = selectedCourse.numOfStudents;\n        if(numOfStudents == 0) {\n            selectedCourse.students[0] = newStudent;\n        } else {\n            selectedCourse.students[numOfStudents + 1] = newStudent;\n        }\n        courses[courseId] = selectedCourse;\n        courses[courseId].numOfStudents++;\n        emit CourseRegistered(courseId, courses[courseId].name, courses[courseId].teacher, courses[courseId].numOfStudents);\n        emit StudentRegistered(courseId, courses[courseId].name, courses[courseId].students[numOfStudents+1].id, courses[courseId].students[numOfStudents+1].name);\n    }\n    // Delete student from course\n    function deleteStudentFromCourse(uint courseId) public {\n        Course storage selectedCourse = courses[courseId];\n\n        for(uint i = 0 ; i <= selectedCourse.numOfStudents ; ++i ) {\n            if(selectedCourse.students[i].stdAddress == msg.sender) {\n                emit StudentRegistered(courseId, courses[courseId].name, courses[courseId].students[i].id, courses[courseId].students[i].name);\n                delete courses[courseId].students[i];\n                emit StudentRegistered(courseId, courses[courseId].name, courses[courseId].students[i].id, courses[courseId].students[i].name);\n            }\n        }\n    }\n\n\n    function printStudentsInCourse(uint courseId) public {\n        emit CourseName(courseId, courses[courseId].name);\n        for (uint i ; i < courses[courseId].numOfStudents ; ++i) {\n            emit StudentNameAndId(courses[courseId].students[i].id, courses[courseId].students[i].name);\n        }\n    }\n    \n    function printCourses() public {\n        for (uint i ; i < numOfCourses ; ++i) {\n            emit CourseName(i, courses[i].name);\n        }\n    }\n\n\n    function test() public {\n        emit Test(\"message test\");\n    }\n\n}",
  "sourcePath": "/Users/samehmackieh/Desktop/student_course_registration/src/contracts/Registration.sol",
  "compiler": {
    "name": "solc",
    "version": "0.5.0+commit.1d4f565a.Emscripten.clang"
  },
  "schemaVersion": "3.0.2",
  "updatedAt": "2022-01-09T19:06:22.361Z",
  "devdoc": {
    "methods": {}
  },
  "userdoc": {
    "methods": {}
  }
}